{
  "_format": "hh-sol-artifact-1",
  "contractName": "Reputation",
  "sourceName": "contracts/Reputation.sol",
  "abi": [
    {
      "inputs": [],
      "stateMutability": "nonpayable",
      "type": "constructor"
    },
    {
      "anonymous": false,
      "inputs": [
        {
          "indexed": true,
          "internalType": "address",
          "name": "node",
          "type": "address"
        },
        {
          "indexed": false,
          "internalType": "string",
          "name": "cid",
          "type": "string"
        },
        {
          "indexed": false,
          "internalType": "string",
          "name": "filename",
          "type": "string"
        },
        {
          "indexed": false,
          "internalType": "address",
          "name": "uploader",
          "type": "address"
        }
      ],
      "name": "FileStored",
      "type": "event"
    },
    {
      "anonymous": false,
      "inputs": [
        {
          "indexed": true,
          "internalType": "address",
          "name": "node",
          "type": "address"
        },
        {
          "indexed": false,
          "internalType": "bool",
          "name": "status",
          "type": "bool"
        }
      ],
      "name": "NodeBlacklisted",
      "type": "event"
    },
    {
      "anonymous": false,
      "inputs": [
        {
          "indexed": true,
          "internalType": "address",
          "name": "node",
          "type": "address"
        },
        {
          "indexed": false,
          "internalType": "uint256",
          "name": "score",
          "type": "uint256"
        }
      ],
      "name": "ScoreUpdated",
      "type": "event"
    },
    {
      "inputs": [],
      "name": "admin",
      "outputs": [
        {
          "internalType": "address",
          "name": "",
          "type": "address"
        }
      ],
      "stateMutability": "view",
      "type": "function"
    },
    {
      "inputs": [
        {
          "internalType": "address",
          "name": "",
          "type": "address"
        }
      ],
      "name": "fileMeta",
      "outputs": [
        {
          "internalType": "string",
          "name": "cid",
          "type": "string"
        },
        {
          "internalType": "string",
          "name": "filename",
          "type": "string"
        },
        {
          "internalType": "address",
          "name": "uploader",
          "type": "address"
        },
        {
          "internalType": "uint256",
          "name": "timestamp",
          "type": "uint256"
        }
      ],
      "stateMutability": "view",
      "type": "function"
    },
    {
      "inputs": [
        {
          "internalType": "address",
          "name": "node",
          "type": "address"
        }
      ],
      "name": "getFileMeta",
      "outputs": [
        {
          "internalType": "string",
          "name": "cid",
          "type": "string"
        },
        {
          "internalType": "string",
          "name": "filename",
          "type": "string"
        },
        {
          "internalType": "address",
          "name": "uploader",
          "type": "address"
        },
        {
          "internalType": "uint256",
          "name": "timestamp",
          "type": "uint256"
        }
      ],
      "stateMutability": "view",
      "type": "function"
    },
    {
      "inputs": [
        {
          "internalType": "address",
          "name": "node",
          "type": "address"
        }
      ],
      "name": "getScore",
      "outputs": [
        {
          "internalType": "uint256",
          "name": "",
          "type": "uint256"
        }
      ],
      "stateMutability": "view",
      "type": "function"
    },
    {
      "inputs": [
        {
          "internalType": "address",
          "name": "node",
          "type": "address"
        }
      ],
      "name": "isSafe",
      "outputs": [
        {
          "internalType": "bool",
          "name": "",
          "type": "bool"
        }
      ],
      "stateMutability": "view",
      "type": "function"
    },
    {
      "inputs": [
        {
          "internalType": "address",
          "name": "",
          "type": "address"
        }
      ],
      "name": "nodes",
      "outputs": [
        {
          "internalType": "uint256",
          "name": "score",
          "type": "uint256"
        },
        {
          "internalType": "bool",
          "name": "isBlacklisted",
          "type": "bool"
        }
      ],
      "stateMutability": "view",
      "type": "function"
    },
    {
      "inputs": [
        {
          "internalType": "address",
          "name": "node",
          "type": "address"
        },
        {
          "internalType": "bool",
          "name": "status",
          "type": "bool"
        }
      ],
      "name": "setBlacklist",
      "outputs": [],
      "stateMutability": "nonpayable",
      "type": "function"
    },
    {
      "inputs": [
        {
          "internalType": "address",
          "name": "node",
          "type": "address"
        },
        {
          "internalType": "string",
          "name": "cid",
          "type": "string"
        },
        {
          "internalType": "string",
          "name": "filename",
          "type": "string"
        },
        {
          "internalType": "address",
          "name": "uploader",
          "type": "address"
        }
      ],
      "name": "storeFileMeta",
      "outputs": [],
      "stateMutability": "nonpayable",
      "type": "function"
    },
    {
      "inputs": [
        {
          "internalType": "address",
          "name": "node",
          "type": "address"
        },
        {
          "internalType": "uint256",
          "name": "score",
          "type": "uint256"
        }
      ],
      "name": "updateScore",
      "outputs": [],
      "stateMutability": "nonpayable",
      "type": "function"
    }
  ],
  "bytecode": "0x608060405234801561001057600080fd5b50336000806101000a81548173ffffffffffffffffffffffffffffffffffffffff021916908373ffffffffffffffffffffffffffffffffffffffff160217905550611416806100606000396000f3fe608060405234801561001057600080fd5b50600436106100935760003560e01c806365d977241161006657806365d9772414610134578063769a28ac14610150578063be4b1fe914610180578063d47875d0146101b3578063f851a440146101e357610093565b806301186f0114610098578063153b0d1e146100b4578063189a5a17146100d05780633005d6c814610101575b600080fd5b6100b260048036038101906100ad9190610c2a565b610201565b005b6100ce60048036038101906100c99190610d09565b61046b565b005b6100ea60048036038101906100e59190610d49565b6105a5565b6040516100f8929190610d9e565b60405180910390f35b61011b60048036038101906101169190610d49565b6105d6565b60405161012b9493929190610e66565b60405180910390f35b61014e60048036038101906101499190610ee5565b610736565b005b61016a60048036038101906101659190610d49565b6108a1565b6040516101779190610f25565b60405180910390f35b61019a60048036038101906101959190610d49565b61094a565b6040516101aa9493929190610e66565b60405180910390f35b6101cd60048036038101906101c89190610d49565b610aed565b6040516101da9190610f40565b60405180910390f35b6101eb610b39565b6040516101f89190610f5b565b60405180910390f35b60008054906101000a900473ffffffffffffffffffffffffffffffffffffffff1673ffffffffffffffffffffffffffffffffffffffff163373ffffffffffffffffffffffffffffffffffffffff161461028f576040517f08c379a000000000000000000000000000000000000000000000000000000000815260040161028690610fc2565b60405180910390fd5b604051806080016040528086868080601f016020809104026020016040519081016040528093929190818152602001838380828437600081840152601f19601f82011690508083019250505050505050815260200184848080601f016020809104026020016040519081016040528093929190818152602001838380828437600081840152601f19601f8201169050808301925050505050505081526020018273ffffffffffffffffffffffffffffffffffffffff16815260200142815250600260008873ffffffffffffffffffffffffffffffffffffffff1673ffffffffffffffffffffffffffffffffffffffff16815260200190815260200160002060008201518160000190816103a2919061121d565b5060208201518160010190816103b8919061121d565b5060408201518160020160006101000a81548173ffffffffffffffffffffffffffffffffffffffff021916908373ffffffffffffffffffffffffffffffffffffffff160217905550606082015181600301559050508573ffffffffffffffffffffffffffffffffffffffff167f8d587ce817ad38e090e28ba3f9d0e5f7f9b7fa9c470fd9e401de8fa137de05b6868686868660405161045b95949392919061132b565b60405180910390a2505050505050565b60008054906101000a900473ffffffffffffffffffffffffffffffffffffffff1673ffffffffffffffffffffffffffffffffffffffff163373ffffffffffffffffffffffffffffffffffffffff16146104f9576040517f08c379a00000000000000000000000000000000000000000000000000000000081526004016104f090610fc2565b60405180910390fd5b80600160008473ffffffffffffffffffffffffffffffffffffffff1673ffffffffffffffffffffffffffffffffffffffff16815260200190815260200160002060010160006101000a81548160ff0219169083151502179055508173ffffffffffffffffffffffffffffffffffffffff167fe1b720662db778ad221ad16fc0e07c44c5c1f52aceaf46dfd82e6cd34c8a1023826040516105999190610f25565b60405180910390a25050565b60016020528060005260406000206000915090508060000154908060010160009054906101000a900460ff16905082565b60026020528060005260406000206000915090508060000180546105f990611040565b80601f016020809104026020016040519081016040528092919081815260200182805461062590611040565b80156106725780601f1061064757610100808354040283529160200191610672565b820191906000526020600020905b81548152906001019060200180831161065557829003601f168201915b50505050509080600101805461068790611040565b80601f01602080910402602001604051908101604052809291908181526020018280546106b390611040565b80156107005780601f106106d557610100808354040283529160200191610700565b820191906000526020600020905b8154815290600101906020018083116106e357829003601f168201915b5050505050908060020160009054906101000a900473ffffffffffffffffffffffffffffffffffffffff16908060030154905084565b60008054906101000a900473ffffffffffffffffffffffffffffffffffffffff1673ffffffffffffffffffffffffffffffffffffffff163373ffffffffffffffffffffffffffffffffffffffff16146107c4576040517f08c379a00000000000000000000000000000000000000000000000000000000081526004016107bb90610fc2565b60405180910390fd5b6064811115610808576040517f08c379a00000000000000000000000000000000000000000000000000000000081526004016107ff906113c0565b60405180910390fd5b80600160008473ffffffffffffffffffffffffffffffffffffffff1673ffffffffffffffffffffffffffffffffffffffff168152602001908152602001600020600001819055508173ffffffffffffffffffffffffffffffffffffffff167f66ead48cfe0e1d1aa8bad492e906c348dfcfeecbf3b7b2cdf9b1f3cfa42a2945826040516108959190610f40565b60405180910390a25050565b60006046600160008473ffffffffffffffffffffffffffffffffffffffff1673ffffffffffffffffffffffffffffffffffffffff16815260200190815260200160002060000154101580156109435750600160008373ffffffffffffffffffffffffffffffffffffffff1673ffffffffffffffffffffffffffffffffffffffff16815260200190815260200160002060010160009054906101000a900460ff16155b9050919050565b6060806000806000600260008773ffffffffffffffffffffffffffffffffffffffff1673ffffffffffffffffffffffffffffffffffffffff168152602001908152602001600020905080600001816001018260020160009054906101000a900473ffffffffffffffffffffffffffffffffffffffff1683600301548380546109d190611040565b80601f01602080910402602001604051908101604052809291908181526020018280546109fd90611040565b8015610a4a5780601f10610a1f57610100808354040283529160200191610a4a565b820191906000526020600020905b815481529060010190602001808311610a2d57829003601f168201915b50505050509350828054610a5d90611040565b80601f0160208091040260200160405190810160405280929190818152602001828054610a8990611040565b8015610ad65780601f10610aab57610100808354040283529160200191610ad6565b820191906000526020600020905b815481529060010190602001808311610ab957829003601f168201915b505050505092509450945094509450509193509193565b6000600160008373ffffffffffffffffffffffffffffffffffffffff1673ffffffffffffffffffffffffffffffffffffffff168152602001908152602001600020600001549050919050565b60008054906101000a900473ffffffffffffffffffffffffffffffffffffffff1681565b600080fd5b600080fd5b600073ffffffffffffffffffffffffffffffffffffffff82169050919050565b6000610b9282610b67565b9050919050565b610ba281610b87565b8114610bad57600080fd5b50565b600081359050610bbf81610b99565b92915050565b600080fd5b600080fd5b600080fd5b60008083601f840112610bea57610be9610bc5565b5b8235905067ffffffffffffffff811115610c0757610c06610bca565b5b602083019150836001820283011115610c2357610c22610bcf565b5b9250929050565b60008060008060008060808789031215610c4757610c46610b5d565b5b6000610c5589828a01610bb0565b965050602087013567ffffffffffffffff811115610c7657610c75610b62565b5b610c8289828a01610bd4565b9550955050604087013567ffffffffffffffff811115610ca557610ca4610b62565b5b610cb189828a01610bd4565b93509350506060610cc489828a01610bb0565b9150509295509295509295565b60008115159050919050565b610ce681610cd1565b8114610cf157600080fd5b50565b600081359050610d0381610cdd565b92915050565b60008060408385031215610d2057610d1f610b5d565b5b6000610d2e85828601610bb0565b9250506020610d3f85828601610cf4565b9150509250929050565b600060208284031215610d5f57610d5e610b5d565b5b6000610d6d84828501610bb0565b91505092915050565b6000819050919050565b610d8981610d76565b82525050565b610d9881610cd1565b82525050565b6000604082019050610db36000830185610d80565b610dc06020830184610d8f565b9392505050565b600081519050919050565b600082825260208201905092915050565b60005b83811015610e01578082015181840152602081019050610de6565b60008484015250505050565b6000601f19601f8301169050919050565b6000610e2982610dc7565b610e338185610dd2565b9350610e43818560208601610de3565b610e4c81610e0d565b840191505092915050565b610e6081610b87565b82525050565b60006080820190508181036000830152610e808187610e1e565b90508181036020830152610e948186610e1e565b9050610ea36040830185610e57565b610eb06060830184610d80565b95945050505050565b610ec281610d76565b8114610ecd57600080fd5b50565b600081359050610edf81610eb9565b92915050565b60008060408385031215610efc57610efb610b5d565b5b6000610f0a85828601610bb0565b9250506020610f1b85828601610ed0565b9150509250929050565b6000602082019050610f3a6000830184610d8f565b92915050565b6000602082019050610f556000830184610d80565b92915050565b6000602082019050610f706000830184610e57565b92915050565b7f4e6f7420617574686f72697a6564000000000000000000000000000000000000600082015250565b6000610fac600e83610dd2565b9150610fb782610f76565b602082019050919050565b60006020820190508181036000830152610fdb81610f9f565b9050919050565b7f4e487b7100000000000000000000000000000000000000000000000000000000600052604160045260246000fd5b7f4e487b7100000000000000000000000000000000000000000000000000000000600052602260045260246000fd5b6000600282049050600182168061105857607f821691505b60208210810361106b5761106a611011565b5b50919050565b60008190508160005260206000209050919050565b60006020601f8301049050919050565b600082821b905092915050565b6000600883026110d37fffffffffffffffffffffffffffffffffffffffffffffffffffffffffffffffff82611096565b6110dd8683611096565b95508019841693508086168417925050509392505050565b6000819050919050565b600061111a61111561111084610d76565b6110f5565b610d76565b9050919050565b6000819050919050565b611134836110ff565b61114861114082611121565b8484546110a3565b825550505050565b600090565b61115d611150565b61116881848461112b565b505050565b5b8181101561118c57611181600082611155565b60018101905061116e565b5050565b601f8211156111d1576111a281611071565b6111ab84611086565b810160208510156111ba578190505b6111ce6111c685611086565b83018261116d565b50505b505050565b600082821c905092915050565b60006111f4600019846008026111d6565b1980831691505092915050565b600061120d83836111e3565b9150826002028217905092915050565b61122682610dc7565b67ffffffffffffffff81111561123f5761123e610fe2565b5b6112498254611040565b611254828285611190565b600060209050601f8311600181146112875760008415611275578287015190505b61127f8582611201565b8655506112e7565b601f19841661129586611071565b60005b828110156112bd57848901518255600182019150602085019450602081019050611298565b868310156112da57848901516112d6601f8916826111e3565b8355505b6001600288020188555050505b505050505050565b82818337600083830152505050565b600061130a8385610dd2565b93506113178385846112ef565b61132083610e0d565b840190509392505050565b600060608201905081810360008301526113468187896112fe565b9050818103602083015261135b8185876112fe565b905061136a6040830184610e57565b9695505050505050565b7f496e76616c69642073636f726500000000000000000000000000000000000000600082015250565b60006113aa600d83610dd2565b91506113b582611374565b602082019050919050565b600060208201905081810360008301526113d98161139d565b905091905056fea2646970667358221220483fb44c24ae30af5f30252c027a3282a5261610b676b9e67c02e12f5653dc2364736f6c63430008140033",
  "linkReferences": {},
  "deployedLinkReferences": {}
}